{
  "_format": "hh-sol-artifact-1",
  "contractName": "Decentralist",
  "sourceName": "contracts/RoyaltyEnforcingNft.sol",
  "abi": [
    {
      "inputs": [
        {
          "internalType": "address",
          "name": "",
          "type": "address"
        }
      ],
      "name": "listMapping",
      "outputs": [
        {
          "internalType": "bool",
          "name": "",
          "type": "bool"
        }
      ],
      "stateMutability": "view",
      "type": "function"
    }
  ],
  "bytecode": "0x608060405234801561001057600080fd5b50610173806100206000396000f3fe608060405234801561001057600080fd5b506004361061002b5760003560e01c806343f502c714610030575b600080fd5b61004a60048036038101906100459190610095565b610060565b60405161005791906100cd565b60405180910390f35b60006020528060005260406000206000915054906101000a900460ff1681565b60008135905061008f81610126565b92915050565b6000602082840312156100a757600080fd5b60006100b584828501610080565b91505092915050565b6100c7816100fa565b82525050565b60006020820190506100e260008301846100be565b92915050565b60006100f382610106565b9050919050565b60008115159050919050565b600073ffffffffffffffffffffffffffffffffffffffff82169050919050565b61012f816100e8565b811461013a57600080fd5b5056fea26469706673582212200eee1637bc4d38e7a4ff18fd2e63b7a61b77cffded2e38bcba69478cf0d6bb4164736f6c63430008040033",
  "linkReferences": {},
  "deployedLinkReferences": {}
}