{
  "_format": "hh-sol-artifact-1",
  "contractName": "RoyaltyEnforcingNft",
  "sourceName": "contracts/RoyaltyEnforcingNft.sol",
  "abi": [
    {
      "inputs": [
        {
          "internalType": "address",
          "name": "list",
          "type": "address"
        },
        {
          "internalType": "string",
          "name": "name",
          "type": "string"
        },
        {
          "internalType": "string",
          "name": "symbol",
          "type": "string"
        }
      ],
      "stateMutability": "nonpayable",
      "type": "constructor"
    },
    {
      "anonymous": false,
      "inputs": [
        {
          "indexed": true,
          "internalType": "address",
          "name": "owner",
          "type": "address"
        },
        {
          "indexed": true,
          "internalType": "address",
          "name": "approved",
          "type": "address"
        },
        {
          "indexed": true,
          "internalType": "uint256",
          "name": "tokenId",
          "type": "uint256"
        }
      ],
      "name": "Approval",
      "type": "event"
    },
    {
      "anonymous": false,
      "inputs": [
        {
          "indexed": true,
          "internalType": "address",
          "name": "owner",
          "type": "address"
        },
        {
          "indexed": true,
          "internalType": "address",
          "name": "operator",
          "type": "address"
        },
        {
          "indexed": false,
          "internalType": "bool",
          "name": "approved",
          "type": "bool"
        }
      ],
      "name": "ApprovalForAll",
      "type": "event"
    },
    {
      "anonymous": false,
      "inputs": [
        {
          "indexed": true,
          "internalType": "address",
          "name": "previousOwner",
          "type": "address"
        },
        {
          "indexed": true,
          "internalType": "address",
          "name": "newOwner",
          "type": "address"
        }
      ],
      "name": "OwnershipTransferred",
      "type": "event"
    },
    {
      "anonymous": false,
      "inputs": [
        {
          "indexed": true,
          "internalType": "address",
          "name": "from",
          "type": "address"
        },
        {
          "indexed": true,
          "internalType": "address",
          "name": "to",
          "type": "address"
        },
        {
          "indexed": true,
          "internalType": "uint256",
          "name": "tokenId",
          "type": "uint256"
        }
      ],
      "name": "Transfer",
      "type": "event"
    },
    {
      "inputs": [
        {
          "internalType": "address",
          "name": "to",
          "type": "address"
        },
        {
          "internalType": "uint256",
          "name": "tokenId",
          "type": "uint256"
        }
      ],
      "name": "approve",
      "outputs": [],
      "stateMutability": "nonpayable",
      "type": "function"
    },
    {
      "inputs": [
        {
          "internalType": "address",
          "name": "owner",
          "type": "address"
        }
      ],
      "name": "balanceOf",
      "outputs": [
        {
          "internalType": "uint256",
          "name": "",
          "type": "uint256"
        }
      ],
      "stateMutability": "view",
      "type": "function"
    },
    {
      "inputs": [
        {
          "internalType": "uint256",
          "name": "tokenId",
          "type": "uint256"
        }
      ],
      "name": "getApproved",
      "outputs": [
        {
          "internalType": "address",
          "name": "",
          "type": "address"
        }
      ],
      "stateMutability": "view",
      "type": "function"
    },
    {
      "inputs": [
        {
          "internalType": "address",
          "name": "owner",
          "type": "address"
        },
        {
          "internalType": "address",
          "name": "operator",
          "type": "address"
        }
      ],
      "name": "isApprovedForAll",
      "outputs": [
        {
          "internalType": "bool",
          "name": "",
          "type": "bool"
        }
      ],
      "stateMutability": "view",
      "type": "function"
    },
    {
      "inputs": [],
      "name": "listContract",
      "outputs": [
        {
          "internalType": "contract Decentralist",
          "name": "",
          "type": "address"
        }
      ],
      "stateMutability": "view",
      "type": "function"
    },
    {
      "inputs": [],
      "name": "name",
      "outputs": [
        {
          "internalType": "string",
          "name": "",
          "type": "string"
        }
      ],
      "stateMutability": "view",
      "type": "function"
    },
    {
      "inputs": [],
      "name": "owner",
      "outputs": [
        {
          "internalType": "address",
          "name": "",
          "type": "address"
        }
      ],
      "stateMutability": "view",
      "type": "function"
    },
    {
      "inputs": [
        {
          "internalType": "uint256",
          "name": "tokenId",
          "type": "uint256"
        }
      ],
      "name": "ownerOf",
      "outputs": [
        {
          "internalType": "address",
          "name": "",
          "type": "address"
        }
      ],
      "stateMutability": "view",
      "type": "function"
    },
    {
      "inputs": [],
      "name": "renounceOwnership",
      "outputs": [],
      "stateMutability": "nonpayable",
      "type": "function"
    },
    {
      "inputs": [
        {
          "internalType": "address",
          "name": "to",
          "type": "address"
        },
        {
          "internalType": "string",
          "name": "uri",
          "type": "string"
        }
      ],
      "name": "safeMint",
      "outputs": [],
      "stateMutability": "nonpayable",
      "type": "function"
    },
    {
      "inputs": [
        {
          "internalType": "address",
          "name": "from",
          "type": "address"
        },
        {
          "internalType": "address",
          "name": "to",
          "type": "address"
        },
        {
          "internalType": "uint256",
          "name": "tokenId",
          "type": "uint256"
        }
      ],
      "name": "safeTransferFrom",
      "outputs": [],
      "stateMutability": "nonpayable",
      "type": "function"
    },
    {
      "inputs": [
        {
          "internalType": "address",
          "name": "from",
          "type": "address"
        },
        {
          "internalType": "address",
          "name": "to",
          "type": "address"
        },
        {
          "internalType": "uint256",
          "name": "tokenId",
          "type": "uint256"
        },
        {
          "internalType": "bytes",
          "name": "data",
          "type": "bytes"
        }
      ],
      "name": "safeTransferFrom",
      "outputs": [],
      "stateMutability": "nonpayable",
      "type": "function"
    },
    {
      "inputs": [
        {
          "internalType": "address",
          "name": "operator",
          "type": "address"
        },
        {
          "internalType": "bool",
          "name": "approved",
          "type": "bool"
        }
      ],
      "name": "setApprovalForAll",
      "outputs": [],
      "stateMutability": "nonpayable",
      "type": "function"
    },
    {
      "inputs": [
        {
          "internalType": "bytes4",
          "name": "interfaceId",
          "type": "bytes4"
        }
      ],
      "name": "supportsInterface",
      "outputs": [
        {
          "internalType": "bool",
          "name": "",
          "type": "bool"
        }
      ],
      "stateMutability": "view",
      "type": "function"
    },
    {
      "inputs": [],
      "name": "symbol",
      "outputs": [
        {
          "internalType": "string",
          "name": "",
          "type": "string"
        }
      ],
      "stateMutability": "view",
      "type": "function"
    },
    {
      "inputs": [
        {
          "internalType": "uint256",
          "name": "tokenId",
          "type": "uint256"
        }
      ],
      "name": "tokenURI",
      "outputs": [
        {
          "internalType": "string",
          "name": "",
          "type": "string"
        }
      ],
      "stateMutability": "view",
      "type": "function"
    },
    {
      "inputs": [
        {
          "internalType": "address",
          "name": "from",
          "type": "address"
        },
        {
          "internalType": "address",
          "name": "to",
          "type": "address"
        },
        {
          "internalType": "uint256",
          "name": "tokenId",
          "type": "uint256"
        }
      ],
      "name": "transferFrom",
      "outputs": [],
      "stateMutability": "nonpayable",
      "type": "function"
    },
    {
      "inputs": [
        {
          "internalType": "address",
          "name": "newOwner",
          "type": "address"
        }
      ],
      "name": "transferOwnership",
      "outputs": [],
      "stateMutability": "nonpayable",
      "type": "function"
    }
  ],
  "bytecode": "0x60806040523480156200001157600080fd5b5060405162003461380380620034618339818101604052810190620000379190620002de565b8181816000908051906020019062000051929190620001a5565b5080600190805190602001906200006a929190620001a5565b5050506200008d62000081620000d760201b60201c565b620000df60201b60201c565b82600960006101000a81548173ffffffffffffffffffffffffffffffffffffffff021916908373ffffffffffffffffffffffffffffffffffffffff16021790555050505062000524565b600033905090565b6000600760009054906101000a900473ffffffffffffffffffffffffffffffffffffffff16905081600760006101000a81548173ffffffffffffffffffffffffffffffffffffffff021916908373ffffffffffffffffffffffffffffffffffffffff1602179055508173ffffffffffffffffffffffffffffffffffffffff168173ffffffffffffffffffffffffffffffffffffffff167f8be0079c531659141344cd1fd0a4f28419497f9722a3daafe3b4186f6b6457e060405160405180910390a35050565b828054620001b3906200042f565b90600052602060002090601f016020900481019282620001d7576000855562000223565b82601f10620001f257805160ff191683800117855562000223565b8280016001018555821562000223579182015b828111156200022257825182559160200191906001019062000205565b5b50905062000232919062000236565b5090565b5b808211156200025157600081600090555060010162000237565b5090565b60006200026c62000266846200038f565b62000366565b9050828152602081018484840111156200028557600080fd5b62000292848285620003f9565b509392505050565b600081519050620002ab816200050a565b92915050565b600082601f830112620002c357600080fd5b8151620002d584826020860162000255565b91505092915050565b600080600060608486031215620002f457600080fd5b600062000304868287016200029a565b935050602084015167ffffffffffffffff8111156200032257600080fd5b6200033086828701620002b1565b925050604084015167ffffffffffffffff8111156200034e57600080fd5b6200035c86828701620002b1565b9150509250925092565b60006200037262000385565b905062000380828262000465565b919050565b6000604051905090565b600067ffffffffffffffff821115620003ad57620003ac620004ca565b5b620003b882620004f9565b9050602081019050919050565b6000620003d282620003d9565b9050919050565b600073ffffffffffffffffffffffffffffffffffffffff82169050919050565b60005b8381101562000419578082015181840152602081019050620003fc565b8381111562000429576000848401525b50505050565b600060028204905060018216806200044857607f821691505b602082108114156200045f576200045e6200049b565b5b50919050565b6200047082620004f9565b810181811067ffffffffffffffff82111715620004925762000491620004ca565b5b80604052505050565b7f4e487b7100000000000000000000000000000000000000000000000000000000600052602260045260246000fd5b7f4e487b7100000000000000000000000000000000000000000000000000000000600052604160045260246000fd5b6000601f19601f8301169050919050565b6200051581620003c5565b81146200052157600080fd5b50565b612f2d80620005346000396000f3fe608060405234801561001057600080fd5b50600436106101165760003560e01c8063715018a6116100a2578063b88d4fde11610071578063b88d4fde146102cd578063c87b56dd146102e9578063d204c45e14610319578063e985e9c514610335578063f2fde38b1461036557610116565b8063715018a61461026b5780638da5cb5b1461027557806395d89b4114610293578063a22cb465146102b157610116565b806323b872dd116100e957806323b872dd146101b55780633c9e711f146101d157806342842e0e146101ef5780636352211e1461020b57806370a082311461023b57610116565b806301ffc9a71461011b57806306fdde031461014b578063081812fc14610169578063095ea7b314610199575b600080fd5b6101356004803603810190610130919061206a565b610381565b604051610142919061245c565b60405180910390f35b610153610463565b6040516101609190612492565b60405180910390f35b610183600480360381019061017e91906120bc565b6104f5565b60405161019091906123f5565b60405180910390f35b6101b360048036038101906101ae9190612005565b61053b565b005b6101cf60048036038101906101ca9190611eab565b610653565b005b6101d96106b3565b6040516101e69190612477565b60405180910390f35b61020960048036038101906102049190611eab565b6106d9565b005b610225600480360381019061022091906120bc565b6106f9565b60405161023291906123f5565b60405180910390f35b61025560048036038101906102509190611e46565b6107ab565b6040516102629190612694565b60405180910390f35b610273610863565b005b61027d610877565b60405161028a91906123f5565b60405180910390f35b61029b6108a1565b6040516102a89190612492565b60405180910390f35b6102cb60048036038101906102c69190611f75565b610933565b005b6102e760048036038101906102e29190611efa565b610949565b005b61030360048036038101906102fe91906120bc565b6109ab565b6040516103109190612492565b60405180910390f35b610333600480360381019061032e9190611fb1565b6109bd565b005b61034f600480360381019061034a9190611e6f565b6109f6565b60405161035c919061245c565b60405180910390f35b61037f600480360381019061037a9190611e46565b610a8a565b005b60007f80ac58cd000000000000000000000000000000000000000000000000000000007bffffffffffffffffffffffffffffffffffffffffffffffffffffffff1916827bffffffffffffffffffffffffffffffffffffffffffffffffffffffff1916148061044c57507f5b5e139f000000000000000000000000000000000000000000000000000000007bffffffffffffffffffffffffffffffffffffffffffffffffffffffff1916827bffffffffffffffffffffffffffffffffffffffffffffffffffffffff1916145b8061045c575061045b82610b0e565b5b9050919050565b6060600080546104729061290e565b80601f016020809104026020016040519081016040528092919081815260200182805461049e9061290e565b80156104eb5780601f106104c0576101008083540402835291602001916104eb565b820191906000526020600020905b8154815290600101906020018083116104ce57829003601f168201915b5050505050905090565b600061050082610b78565b6004600083815260200190815260200160002060009054906101000a900473ffffffffffffffffffffffffffffffffffffffff169050919050565b6000610546826106f9565b90508073ffffffffffffffffffffffffffffffffffffffff168373ffffffffffffffffffffffffffffffffffffffff1614156105b7576040517f08c379a00000000000000000000000000000000000000000000000000000000081526004016105ae90612634565b60405180910390fd5b8073ffffffffffffffffffffffffffffffffffffffff166105d6610bc3565b73ffffffffffffffffffffffffffffffffffffffff1614806106055750610604816105ff610bc3565b6109f6565b5b610644576040517f08c379a000000000000000000000000000000000000000000000000000000000815260040161063b906125b4565b60405180910390fd5b61064e8383610bcb565b505050565b61066461065e610bc3565b82610c84565b6106a3576040517f08c379a000000000000000000000000000000000000000000000000000000000815260040161069a90612674565b60405180910390fd5b6106ae838383610d19565b505050565b600960009054906101000a900473ffffffffffffffffffffffffffffffffffffffff1681565b6106f483838360405180602001604052806000815250610949565b505050565b6000806002600084815260200190815260200160002060009054906101000a900473ffffffffffffffffffffffffffffffffffffffff169050600073ffffffffffffffffffffffffffffffffffffffff168173ffffffffffffffffffffffffffffffffffffffff1614156107a2576040517f08c379a000000000000000000000000000000000000000000000000000000000815260040161079990612614565b60405180910390fd5b80915050919050565b60008073ffffffffffffffffffffffffffffffffffffffff168273ffffffffffffffffffffffffffffffffffffffff16141561081c576040517f08c379a000000000000000000000000000000000000000000000000000000000815260040161081390612574565b60405180910390fd5b600360008373ffffffffffffffffffffffffffffffffffffffff1673ffffffffffffffffffffffffffffffffffffffff168152602001908152602001600020549050919050565b61086b610f80565b6108756000610ffe565b565b6000600760009054906101000a900473ffffffffffffffffffffffffffffffffffffffff16905090565b6060600180546108b09061290e565b80601f01602080910402602001604051908101604052809291908181526020018280546108dc9061290e565b80156109295780601f106108fe57610100808354040283529160200191610929565b820191906000526020600020905b81548152906001019060200180831161090c57829003601f168201915b5050505050905090565b61094561093e610bc3565b83836110c4565b5050565b61095a610954610bc3565b83610c84565b610999576040517f08c379a000000000000000000000000000000000000000000000000000000000815260040161099090612674565b60405180910390fd5b6109a584848484611231565b50505050565b60606109b68261128d565b9050919050565b6109c5610f80565b60006109d160086113a0565b90506109dd60086113ae565b6109e783826113c4565b6109f181836113e2565b505050565b6000600560008473ffffffffffffffffffffffffffffffffffffffff1673ffffffffffffffffffffffffffffffffffffffff16815260200190815260200160002060008373ffffffffffffffffffffffffffffffffffffffff1673ffffffffffffffffffffffffffffffffffffffff16815260200190815260200160002060009054906101000a900460ff16905092915050565b610a92610f80565b600073ffffffffffffffffffffffffffffffffffffffff168173ffffffffffffffffffffffffffffffffffffffff161415610b02576040517f08c379a0000000000000000000000000000000000000000000000000000000008152600401610af9906124d4565b60405180910390fd5b610b0b81610ffe565b50565b60007f01ffc9a7000000000000000000000000000000000000000000000000000000007bffffffffffffffffffffffffffffffffffffffffffffffffffffffff1916827bffffffffffffffffffffffffffffffffffffffffffffffffffffffff1916149050919050565b610b8181611456565b610bc0576040517f08c379a0000000000000000000000000000000000000000000000000000000008152600401610bb790612614565b60405180910390fd5b50565b600033905090565b816004600083815260200190815260200160002060006101000a81548173ffffffffffffffffffffffffffffffffffffffff021916908373ffffffffffffffffffffffffffffffffffffffff160217905550808273ffffffffffffffffffffffffffffffffffffffff16610c3e836106f9565b73ffffffffffffffffffffffffffffffffffffffff167f8c5be1e5ebec7d5bd14f71427d1e84f3dd0314c0f7b2291e5b200ac8c7c3b92560405160405180910390a45050565b600080610c90836106f9565b90508073ffffffffffffffffffffffffffffffffffffffff168473ffffffffffffffffffffffffffffffffffffffff161480610cd25750610cd181856109f6565b5b80610d1057508373ffffffffffffffffffffffffffffffffffffffff16610cf8846104f5565b73ffffffffffffffffffffffffffffffffffffffff16145b91505092915050565b8273ffffffffffffffffffffffffffffffffffffffff16610d39826106f9565b73ffffffffffffffffffffffffffffffffffffffff1614610d8f576040517f08c379a0000000000000000000000000000000000000000000000000000000008152600401610d86906124f4565b60405180910390fd5b600073ffffffffffffffffffffffffffffffffffffffff168273ffffffffffffffffffffffffffffffffffffffff161415610dff576040517f08c379a0000000000000000000000000000000000000000000000000000000008152600401610df690612534565b60405180910390fd5b610e0a8383836114c2565b610e15600082610bcb565b6001600360008573ffffffffffffffffffffffffffffffffffffffff1673ffffffffffffffffffffffffffffffffffffffff1681526020019081526020016000206000828254610e659190612800565b925050819055506001600360008473ffffffffffffffffffffffffffffffffffffffff1673ffffffffffffffffffffffffffffffffffffffff1681526020019081526020016000206000828254610ebc9190612779565b92505081905550816002600083815260200190815260200160002060006101000a81548173ffffffffffffffffffffffffffffffffffffffff021916908373ffffffffffffffffffffffffffffffffffffffff160217905550808273ffffffffffffffffffffffffffffffffffffffff168473ffffffffffffffffffffffffffffffffffffffff167fddf252ad1be2c89b69c2b068fc378daa952ba7f163c4a11628f55a4df523b3ef60405160405180910390a4610f7b838383611630565b505050565b610f88610bc3565b73ffffffffffffffffffffffffffffffffffffffff16610fa6610877565b73ffffffffffffffffffffffffffffffffffffffff1614610ffc576040517f08c379a0000000000000000000000000000000000000000000000000000000008152600401610ff3906125f4565b60405180910390fd5b565b6000600760009054906101000a900473ffffffffffffffffffffffffffffffffffffffff16905081600760006101000a81548173ffffffffffffffffffffffffffffffffffffffff021916908373ffffffffffffffffffffffffffffffffffffffff1602179055508173ffffffffffffffffffffffffffffffffffffffff168173ffffffffffffffffffffffffffffffffffffffff167f8be0079c531659141344cd1fd0a4f28419497f9722a3daafe3b4186f6b6457e060405160405180910390a35050565b8173ffffffffffffffffffffffffffffffffffffffff168373ffffffffffffffffffffffffffffffffffffffff161415611133576040517f08c379a000000000000000000000000000000000000000000000000000000000815260040161112a90612554565b60405180910390fd5b80600560008573ffffffffffffffffffffffffffffffffffffffff1673ffffffffffffffffffffffffffffffffffffffff16815260200190815260200160002060008473ffffffffffffffffffffffffffffffffffffffff1673ffffffffffffffffffffffffffffffffffffffff16815260200190815260200160002060006101000a81548160ff0219169083151502179055508173ffffffffffffffffffffffffffffffffffffffff168373ffffffffffffffffffffffffffffffffffffffff167f17307eab39ab6107e8899845ad3d59bd9653f200f220920489ca2b5937696c3183604051611224919061245c565b60405180910390a3505050565b61123c848484610d19565b61124884848484611635565b611287576040517f08c379a000000000000000000000000000000000000000000000000000000000815260040161127e906124b4565b60405180910390fd5b50505050565b606061129882610b78565b60006006600084815260200190815260200160002080546112b89061290e565b80601f01602080910402602001604051908101604052809291908181526020018280546112e49061290e565b80156113315780601f1061130657610100808354040283529160200191611331565b820191906000526020600020905b81548152906001019060200180831161131457829003601f168201915b5050505050905060006113426117cc565b905060008151141561135857819250505061139b565b60008251111561138d5780826040516020016113759291906123d1565b6040516020818303038152906040529250505061139b565b611396846117e3565b925050505b919050565b600081600001549050919050565b6001816000016000828254019250508190555050565b6113de82826040518060200160405280600081525061184b565b5050565b6113eb82611456565b61142a576040517f08c379a000000000000000000000000000000000000000000000000000000000815260040161142190612594565b60405180910390fd5b80600660008481526020019081526020016000209080519060200190611451929190611c55565b505050565b60008073ffffffffffffffffffffffffffffffffffffffff166002600084815260200190815260200160002060009054906101000a900473ffffffffffffffffffffffffffffffffffffffff1673ffffffffffffffffffffffffffffffffffffffff1614159050919050565b600073ffffffffffffffffffffffffffffffffffffffff168373ffffffffffffffffffffffffffffffffffffffff161415801561152c5750600073ffffffffffffffffffffffffffffffffffffffff168273ffffffffffffffffffffffffffffffffffffffff1614155b80156115e05750600960009054906101000a900473ffffffffffffffffffffffffffffffffffffffff1673ffffffffffffffffffffffffffffffffffffffff166343f502c7336040518263ffffffff1660e01b815260040161158e91906123f5565b60206040518083038186803b1580156115a657600080fd5b505afa1580156115ba573d6000803e3d6000fd5b505050506040513d601f19601f820116820180604052508101906115de9190612041565b155b15611620576040517f08c379a000000000000000000000000000000000000000000000000000000000815260040161161790612654565b60405180910390fd5b61162b8383836118a6565b505050565b505050565b60006116568473ffffffffffffffffffffffffffffffffffffffff166118ab565b156117bf578373ffffffffffffffffffffffffffffffffffffffff1663150b7a0261167f610bc3565b8786866040518563ffffffff1660e01b81526004016116a19493929190612410565b602060405180830381600087803b1580156116bb57600080fd5b505af19250505080156116ec57506040513d601f19601f820116820180604052508101906116e99190612093565b60015b61176f573d806000811461171c576040519150601f19603f3d011682016040523d82523d6000602084013e611721565b606091505b50600081511415611767576040517f08c379a000000000000000000000000000000000000000000000000000000000815260040161175e906124b4565b60405180910390fd5b805181602001fd5b63150b7a0260e01b7bffffffffffffffffffffffffffffffffffffffffffffffffffffffff1916817bffffffffffffffffffffffffffffffffffffffffffffffffffffffff1916149150506117c4565b600190505b949350505050565b606060405180602001604052806000815250905090565b60606117ee82610b78565b60006117f86117cc565b905060008151116118185760405180602001604052806000815250611843565b80611822846118ce565b6040516020016118339291906123d1565b6040516020818303038152906040525b915050919050565b6118558383611a7b565b6118626000848484611635565b6118a1576040517f08c379a0000000000000000000000000000000000000000000000000000000008152600401611898906124b4565b60405180910390fd5b505050565b505050565b6000808273ffffffffffffffffffffffffffffffffffffffff163b119050919050565b60606000821415611916576040518060400160405280600181526020017f30000000000000000000000000000000000000000000000000000000000000008152509050611a76565b600082905060005b6000821461194857808061193190612971565b915050600a8261194191906127cf565b915061191e565b60008167ffffffffffffffff81111561198a577f4e487b7100000000000000000000000000000000000000000000000000000000600052604160045260246000fd5b6040519080825280601f01601f1916602001820160405280156119bc5781602001600182028036833780820191505090505b5090505b60008514611a6f576001826119d59190612800565b9150600a856119e491906129ba565b60306119f09190612779565b60f81b818381518110611a2c577f4e487b7100000000000000000000000000000000000000000000000000000000600052603260045260246000fd5b60200101907effffffffffffffffffffffffffffffffffffffffffffffffffffffffffffff1916908160001a905350600a85611a6891906127cf565b94506119c0565b8093505050505b919050565b600073ffffffffffffffffffffffffffffffffffffffff168273ffffffffffffffffffffffffffffffffffffffff161415611aeb576040517f08c379a0000000000000000000000000000000000000000000000000000000008152600401611ae2906125d4565b60405180910390fd5b611af481611456565b15611b34576040517f08c379a0000000000000000000000000000000000000000000000000000000008152600401611b2b90612514565b60405180910390fd5b611b40600083836114c2565b6001600360008473ffffffffffffffffffffffffffffffffffffffff1673ffffffffffffffffffffffffffffffffffffffff1681526020019081526020016000206000828254611b909190612779565b92505081905550816002600083815260200190815260200160002060006101000a81548173ffffffffffffffffffffffffffffffffffffffff021916908373ffffffffffffffffffffffffffffffffffffffff160217905550808273ffffffffffffffffffffffffffffffffffffffff16600073ffffffffffffffffffffffffffffffffffffffff167fddf252ad1be2c89b69c2b068fc378daa952ba7f163c4a11628f55a4df523b3ef60405160405180910390a4611c5160008383611630565b5050565b828054611c619061290e565b90600052602060002090601f016020900481019282611c835760008555611cca565b82601f10611c9c57805160ff1916838001178555611cca565b82800160010185558215611cca579182015b82811115611cc9578251825591602001919060010190611cae565b5b509050611cd79190611cdb565b5090565b5b80821115611cf4576000816000905550600101611cdc565b5090565b6000611d0b611d06846126d4565b6126af565b905082815260208101848484011115611d2357600080fd5b611d2e8482856128cc565b509392505050565b6000611d49611d4484612705565b6126af565b905082815260208101848484011115611d6157600080fd5b611d6c8482856128cc565b509392505050565b600081359050611d8381612e9b565b92915050565b600081359050611d9881612eb2565b92915050565b600081519050611dad81612eb2565b92915050565b600081359050611dc281612ec9565b92915050565b600081519050611dd781612ec9565b92915050565b600082601f830112611dee57600080fd5b8135611dfe848260208601611cf8565b91505092915050565b600082601f830112611e1857600080fd5b8135611e28848260208601611d36565b91505092915050565b600081359050611e4081612ee0565b92915050565b600060208284031215611e5857600080fd5b6000611e6684828501611d74565b91505092915050565b60008060408385031215611e8257600080fd5b6000611e9085828601611d74565b9250506020611ea185828601611d74565b9150509250929050565b600080600060608486031215611ec057600080fd5b6000611ece86828701611d74565b9350506020611edf86828701611d74565b9250506040611ef086828701611e31565b9150509250925092565b60008060008060808587031215611f1057600080fd5b6000611f1e87828801611d74565b9450506020611f2f87828801611d74565b9350506040611f4087828801611e31565b925050606085013567ffffffffffffffff811115611f5d57600080fd5b611f6987828801611ddd565b91505092959194509250565b60008060408385031215611f8857600080fd5b6000611f9685828601611d74565b9250506020611fa785828601611d89565b9150509250929050565b60008060408385031215611fc457600080fd5b6000611fd285828601611d74565b925050602083013567ffffffffffffffff811115611fef57600080fd5b611ffb85828601611e07565b9150509250929050565b6000806040838503121561201857600080fd5b600061202685828601611d74565b925050602061203785828601611e31565b9150509250929050565b60006020828403121561205357600080fd5b600061206184828501611d9e565b91505092915050565b60006020828403121561207c57600080fd5b600061208a84828501611db3565b91505092915050565b6000602082840312156120a557600080fd5b60006120b384828501611dc8565b91505092915050565b6000602082840312156120ce57600080fd5b60006120dc84828501611e31565b91505092915050565b6120ee81612834565b82525050565b6120fd81612846565b82525050565b600061210e82612736565b612118818561274c565b93506121288185602086016128db565b61213181612aa7565b840191505092915050565b612145816128a8565b82525050565b600061215682612741565b612160818561275d565b93506121708185602086016128db565b61217981612aa7565b840191505092915050565b600061218f82612741565b612199818561276e565b93506121a98185602086016128db565b80840191505092915050565b60006121c260328361275d565b91506121cd82612ab8565b604082019050919050565b60006121e560268361275d565b91506121f082612b07565b604082019050919050565b600061220860258361275d565b915061221382612b56565b604082019050919050565b600061222b601c8361275d565b915061223682612ba5565b602082019050919050565b600061224e60248361275d565b915061225982612bce565b604082019050919050565b600061227160198361275d565b915061227c82612c1d565b602082019050919050565b600061229460298361275d565b915061229f82612c46565b604082019050919050565b60006122b7602e8361275d565b91506122c282612c95565b604082019050919050565b60006122da603e8361275d565b91506122e582612ce4565b604082019050919050565b60006122fd60208361275d565b915061230882612d33565b602082019050919050565b600061232060208361275d565b915061232b82612d5c565b602082019050919050565b600061234360188361275d565b915061234e82612d85565b602082019050919050565b600061236660218361275d565b915061237182612dae565b604082019050919050565b600061238960258361275d565b915061239482612dfd565b604082019050919050565b60006123ac602e8361275d565b91506123b782612e4c565b604082019050919050565b6123cb8161289e565b82525050565b60006123dd8285612184565b91506123e98284612184565b91508190509392505050565b600060208201905061240a60008301846120e5565b92915050565b600060808201905061242560008301876120e5565b61243260208301866120e5565b61243f60408301856123c2565b81810360608301526124518184612103565b905095945050505050565b600060208201905061247160008301846120f4565b92915050565b600060208201905061248c600083018461213c565b92915050565b600060208201905081810360008301526124ac818461214b565b905092915050565b600060208201905081810360008301526124cd816121b5565b9050919050565b600060208201905081810360008301526124ed816121d8565b9050919050565b6000602082019050818103600083015261250d816121fb565b9050919050565b6000602082019050818103600083015261252d8161221e565b9050919050565b6000602082019050818103600083015261254d81612241565b9050919050565b6000602082019050818103600083015261256d81612264565b9050919050565b6000602082019050818103600083015261258d81612287565b9050919050565b600060208201905081810360008301526125ad816122aa565b9050919050565b600060208201905081810360008301526125cd816122cd565b9050919050565b600060208201905081810360008301526125ed816122f0565b9050919050565b6000602082019050818103600083015261260d81612313565b9050919050565b6000602082019050818103600083015261262d81612336565b9050919050565b6000602082019050818103600083015261264d81612359565b9050919050565b6000602082019050818103600083015261266d8161237c565b9050919050565b6000602082019050818103600083015261268d8161239f565b9050919050565b60006020820190506126a960008301846123c2565b92915050565b60006126b96126ca565b90506126c58282612940565b919050565b6000604051905090565b600067ffffffffffffffff8211156126ef576126ee612a78565b5b6126f882612aa7565b9050602081019050919050565b600067ffffffffffffffff8211156127205761271f612a78565b5b61272982612aa7565b9050602081019050919050565b600081519050919050565b600081519050919050565b600082825260208201905092915050565b600082825260208201905092915050565b600081905092915050565b60006127848261289e565b915061278f8361289e565b9250827fffffffffffffffffffffffffffffffffffffffffffffffffffffffffffffffff038211156127c4576127c36129eb565b5b828201905092915050565b60006127da8261289e565b91506127e58361289e565b9250826127f5576127f4612a1a565b5b828204905092915050565b600061280b8261289e565b91506128168361289e565b925082821015612829576128286129eb565b5b828203905092915050565b600061283f8261287e565b9050919050565b60008115159050919050565b60007fffffffff0000000000000000000000000000000000000000000000000000000082169050919050565b600073ffffffffffffffffffffffffffffffffffffffff82169050919050565b6000819050919050565b60006128b3826128ba565b9050919050565b60006128c58261287e565b9050919050565b82818337600083830152505050565b60005b838110156128f95780820151818401526020810190506128de565b83811115612908576000848401525b50505050565b6000600282049050600182168061292657607f821691505b6020821081141561293a57612939612a49565b5b50919050565b61294982612aa7565b810181811067ffffffffffffffff8211171561296857612967612a78565b5b80604052505050565b600061297c8261289e565b91507fffffffffffffffffffffffffffffffffffffffffffffffffffffffffffffffff8214156129af576129ae6129eb565b5b600182019050919050565b60006129c58261289e565b91506129d08361289e565b9250826129e0576129df612a1a565b5b828206905092915050565b7f4e487b7100000000000000000000000000000000000000000000000000000000600052601160045260246000fd5b7f4e487b7100000000000000000000000000000000000000000000000000000000600052601260045260246000fd5b7f4e487b7100000000000000000000000000000000000000000000000000000000600052602260045260246000fd5b7f4e487b7100000000000000000000000000000000000000000000000000000000600052604160045260246000fd5b6000601f19601f8301169050919050565b7f4552433732313a207472616e7366657220746f206e6f6e20455243373231526560008201527f63656976657220696d706c656d656e7465720000000000000000000000000000602082015250565b7f4f776e61626c653a206e6577206f776e657220697320746865207a65726f206160008201527f6464726573730000000000000000000000000000000000000000000000000000602082015250565b7f4552433732313a207472616e736665722066726f6d20696e636f72726563742060008201527f6f776e6572000000000000000000000000000000000000000000000000000000602082015250565b7f4552433732313a20746f6b656e20616c7265616479206d696e74656400000000600082015250565b7f4552433732313a207472616e7366657220746f20746865207a65726f2061646460008201527f7265737300000000000000000000000000000000000000000000000000000000602082015250565b7f4552433732313a20617070726f766520746f2063616c6c657200000000000000600082015250565b7f4552433732313a2061646472657373207a65726f206973206e6f74206120766160008201527f6c6964206f776e65720000000000000000000000000000000000000000000000602082015250565b7f45524337323155524953746f726167653a2055524920736574206f66206e6f6e60008201527f6578697374656e7420746f6b656e000000000000000000000000000000000000602082015250565b7f4552433732313a20617070726f76652063616c6c6572206973206e6f7420746f60008201527f6b656e206f776e6572206e6f7220617070726f76656420666f7220616c6c0000602082015250565b7f4552433732313a206d696e7420746f20746865207a65726f2061646472657373600082015250565b7f4f776e61626c653a2063616c6c6572206973206e6f7420746865206f776e6572600082015250565b7f4552433732313a20696e76616c696420746f6b656e2049440000000000000000600082015250565b7f4552433732313a20617070726f76616c20746f2063757272656e74206f776e6560008201527f7200000000000000000000000000000000000000000000000000000000000000602082015250565b7f526f79616c7479456e666f7263696e674e66743a20696c6c6567616c206f706560008201527f7261746f72000000000000000000000000000000000000000000000000000000602082015250565b7f4552433732313a2063616c6c6572206973206e6f7420746f6b656e206f776e6560008201527f72206e6f7220617070726f766564000000000000000000000000000000000000602082015250565b612ea481612834565b8114612eaf57600080fd5b50565b612ebb81612846565b8114612ec657600080fd5b50565b612ed281612852565b8114612edd57600080fd5b50565b612ee98161289e565b8114612ef457600080fd5b5056fea264697066735822122061740ba3f7dcfa820af2fd297d696faa35ef765eb522b9b70d8af34808ce258f64736f6c63430008040033",
  "linkReferences": {},
  "deployedLinkReferences": {}
}